{
  "_format": "hh-sol-artifact-1",
  "contractName": "AutoRaffle",
  "sourceName": "contracts/RaffleManager.sol",
  "abi": [
    {
      "inputs": [
        {
          "internalType": "string",
          "name": "_prizeDescription",
          "type": "string"
        },
        {
          "internalType": "uint256",
          "name": "_ticketPrice",
          "type": "uint256"
        },
        {
          "internalType": "uint256",
          "name": "_prizeValue",
          "type": "uint256"
        },
        {
          "internalType": "uint256",
          "name": "_duration",
          "type": "uint256"
        },
        {
          "internalType": "uint256",
          "name": "_maxTickets",
          "type": "uint256"
        }
      ],
      "stateMutability": "nonpayable",
      "type": "constructor"
    },
    {
      "anonymous": false,
      "inputs": [
        {
          "indexed": false,
          "internalType": "uint256",
          "name": "maxTickets",
          "type": "uint256"
        }
      ],
      "name": "MaxTicketsReached",
      "type": "event"
    },
    {
      "anonymous": false,
      "inputs": [],
      "name": "RaffleCancelled",
      "type": "event"
    },
    {
      "anonymous": false,
      "inputs": [
        {
          "indexed": false,
          "internalType": "address",
          "name": "winner",
          "type": "address"
        },
        {
          "indexed": false,
          "internalType": "uint256",
          "name": "prize",
          "type": "uint256"
        },
        {
          "indexed": false,
          "internalType": "uint256",
          "name": "ownerProfit",
          "type": "uint256"
        },
        {
          "indexed": false,
          "internalType": "uint256",
          "name": "platformFee",
          "type": "uint256"
        }
      ],
      "name": "RaffleCompleted",
      "type": "event"
    },
    {
      "anonymous": false,
      "inputs": [],
      "name": "RaffleRefunded",
      "type": "event"
    },
    {
      "anonymous": false,
      "inputs": [
        {
          "indexed": false,
          "internalType": "address",
          "name": "participant",
          "type": "address"
        },
        {
          "indexed": false,
          "internalType": "uint256",
          "name": "amount",
          "type": "uint256"
        }
      ],
      "name": "RefundClaimed",
      "type": "event"
    },
    {
      "anonymous": false,
      "inputs": [
        {
          "indexed": false,
          "internalType": "address",
          "name": "buyer",
          "type": "address"
        },
        {
          "indexed": false,
          "internalType": "uint256",
          "name": "quantity",
          "type": "uint256"
        }
      ],
      "name": "TicketPurchased",
      "type": "event"
    },
    {
      "inputs": [
        {
          "internalType": "uint256",
          "name": "_quantity",
          "type": "uint256"
        }
      ],
      "name": "buyTicket",
      "outputs": [],
      "stateMutability": "payable",
      "type": "function"
    },
    {
      "inputs": [],
      "name": "cancelRaffle",
      "outputs": [],
      "stateMutability": "nonpayable",
      "type": "function"
    },
    {
      "inputs": [],
      "name": "claimRefund",
      "outputs": [],
      "stateMutability": "nonpayable",
      "type": "function"
    },
    {
      "inputs": [],
      "name": "endTime",
      "outputs": [
        {
          "internalType": "uint256",
          "name": "",
          "type": "uint256"
        }
      ],
      "stateMutability": "view",
      "type": "function"
    },
    {
      "inputs": [],
      "name": "finalizeRaffle",
      "outputs": [],
      "stateMutability": "nonpayable",
      "type": "function"
    },
    {
      "inputs": [],
      "name": "getContractBalance",
      "outputs": [
        {
          "internalType": "uint256",
          "name": "",
          "type": "uint256"
        }
      ],
      "stateMutability": "view",
      "type": "function"
    },
    {
      "inputs": [],
      "name": "getParticipantsCount",
      "outputs": [
        {
          "internalType": "uint256",
          "name": "",
          "type": "uint256"
        }
      ],
      "stateMutability": "view",
      "type": "function"
    },
    {
      "inputs": [],
      "name": "getRaffleState",
      "outputs": [
        {
          "internalType": "string",
          "name": "",
          "type": "string"
        }
      ],
      "stateMutability": "view",
      "type": "function"
    },
    {
      "inputs": [
        {
          "internalType": "address",
          "name": "participant",
          "type": "address"
        }
      ],
      "name": "getRefundAmount",
      "outputs": [
        {
          "internalType": "uint256",
          "name": "",
          "type": "uint256"
        }
      ],
      "stateMutability": "view",
      "type": "function"
    },
    {
      "inputs": [],
      "name": "maxTickets",
      "outputs": [
        {
          "internalType": "uint256",
          "name": "",
          "type": "uint256"
        }
      ],
      "stateMutability": "view",
      "type": "function"
    },
    {
      "inputs": [],
      "name": "minParticipants",
      "outputs": [
        {
          "internalType": "uint256",
          "name": "",
          "type": "uint256"
        }
      ],
      "stateMutability": "view",
      "type": "function"
    },
    {
      "inputs": [],
      "name": "owner",
      "outputs": [
        {
          "internalType": "address",
          "name": "",
          "type": "address"
        }
      ],
      "stateMutability": "view",
      "type": "function"
    },
    {
      "inputs": [
        {
          "internalType": "uint256",
          "name": "",
          "type": "uint256"
        }
      ],
      "name": "participants",
      "outputs": [
        {
          "internalType": "address",
          "name": "",
          "type": "address"
        }
      ],
      "stateMutability": "view",
      "type": "function"
    },
    {
      "inputs": [],
      "name": "platform",
      "outputs": [
        {
          "internalType": "address",
          "name": "",
          "type": "address"
        }
      ],
      "stateMutability": "view",
      "type": "function"
    },
    {
      "inputs": [],
      "name": "prizeDescription",
      "outputs": [
        {
          "internalType": "string",
          "name": "",
          "type": "string"
        }
      ],
      "stateMutability": "view",
      "type": "function"
    },
    {
      "inputs": [],
      "name": "prizeValue",
      "outputs": [
        {
          "internalType": "uint256",
          "name": "",
          "type": "uint256"
        }
      ],
      "stateMutability": "view",
      "type": "function"
    },
    {
      "inputs": [],
      "name": "refundAmountPerTicket",
      "outputs": [
        {
          "internalType": "uint256",
          "name": "",
          "type": "uint256"
        }
      ],
      "stateMutability": "view",
      "type": "function"
    },
    {
      "inputs": [],
      "name": "state",
      "outputs": [
        {
          "internalType": "enum AutoRaffle.RaffleState",
          "name": "",
          "type": "uint8"
        }
      ],
      "stateMutability": "view",
      "type": "function"
    },
    {
      "inputs": [],
      "name": "ticketPrice",
      "outputs": [
        {
          "internalType": "uint256",
          "name": "",
          "type": "uint256"
        }
      ],
      "stateMutability": "view",
      "type": "function"
    },
    {
      "inputs": [
        {
          "internalType": "address",
          "name": "",
          "type": "address"
        }
      ],
      "name": "ticketsBought",
      "outputs": [
        {
          "internalType": "uint256",
          "name": "",
          "type": "uint256"
        }
      ],
      "stateMutability": "view",
      "type": "function"
    },
    {
      "inputs": [],
      "name": "totalTicketsSold",
      "outputs": [
        {
          "internalType": "uint256",
          "name": "",
          "type": "uint256"
        }
      ],
      "stateMutability": "view",
      "type": "function"
    },
    {
      "inputs": [],
      "name": "winner",
      "outputs": [
        {
          "internalType": "address",
          "name": "",
          "type": "address"
        }
      ],
      "stateMutability": "view",
      "type": "function"
    },
    {
      "stateMutability": "payable",
      "type": "receive"
    }
  ],
  "bytecode": "0x6080604052730fade5b267b572dc1f002d1b9148976ccce9c8c8600160006101000a81548173ffffffffffffffffffffffffffffffffffffffff021916908373ffffffffffffffffffffffffffffffffffffffff1602179055503480156200006657600080fd5b50604051620031973803806200319783398181016040528101906200008c9190620004c7565b60008411620000d2576040517f08c379a0000000000000000000000000000000000000000000000000000000008152600401620000c990620005f5565b60405180910390fd5b6000831162000118576040517f08c379a00000000000000000000000000000000000000000000000000000000081526004016200010f906200068d565b60405180910390fd5b600082116200015e576040517f08c379a00000000000000000000000000000000000000000000000000000000081526004016200015590620006ff565b60405180910390fd5b60008111620001a4576040517f08c379a00000000000000000000000000000000000000000000000000000000081526004016200019b9062000797565b60405180910390fd5b600a84620001b39190620007e8565b6001600a86620001c49190620007e8565b600b86620001d39190620007e8565b620001df919062000833565b620001eb91906200086e565b620001f79190620008d8565b60068190555060065481101562000245576040517f08c379a00000000000000000000000000000000000000000000000000000000081526004016200023c9062000986565b60405180910390fd5b336000806101000a81548173ffffffffffffffffffffffffffffffffffffffff021916908373ffffffffffffffffffffffffffffffffffffffff160217905550846002908162000296919062000be9565b5083600381905550826004819055508142620002b3919062000833565b600581905550806007819055506000600b60006101000a81548160ff02191690836003811115620002e957620002e862000cd0565b5b0217905550505050505062000cff565b6000604051905090565b600080fd5b600080fd5b600080fd5b600080fd5b6000601f19601f8301169050919050565b7f4e487b7100000000000000000000000000000000000000000000000000000000600052604160045260246000fd5b620003628262000317565b810181811067ffffffffffffffff8211171562000384576200038362000328565b5b80604052505050565b600062000399620002f9565b9050620003a7828262000357565b919050565b600067ffffffffffffffff821115620003ca57620003c962000328565b5b620003d58262000317565b9050602081019050919050565b60005b8381101562000402578082015181840152602081019050620003e5565b60008484015250505050565b6000620004256200041f84620003ac565b6200038d565b90508281526020810184848401111562000444576200044362000312565b5b62000451848285620003e2565b509392505050565b600082601f8301126200047157620004706200030d565b5b8151620004838482602086016200040e565b91505092915050565b6000819050919050565b620004a1816200048c565b8114620004ad57600080fd5b50565b600081519050620004c18162000496565b92915050565b600080600080600060a08688031215620004e657620004e562000303565b5b600086015167ffffffffffffffff81111562000507576200050662000308565b5b620005158882890162000459565b95505060206200052888828901620004b0565b94505060406200053b88828901620004b0565b93505060606200054e88828901620004b0565b92505060806200056188828901620004b0565b9150509295509295909350565b600082825260208201905092915050565b7f5469636b6574207072696365206d75737420626520677265617465722074686160008201527f6e20300000000000000000000000000000000000000000000000000000000000602082015250565b6000620005dd6023836200056e565b9150620005ea826200057f565b604082019050919050565b600060208201905081810360008301526200061081620005ce565b9050919050565b7f5072697a652076616c7565206d7573742062652067726561746572207468616e60008201527f2030000000000000000000000000000000000000000000000000000000000000602082015250565b6000620006756022836200056e565b9150620006828262000617565b604082019050919050565b60006020820190508181036000830152620006a88162000666565b9050919050565b7f4475726174696f6e206d7573742062652067726561746572207468616e203000600082015250565b6000620006e7601f836200056e565b9150620006f482620006af565b602082019050919050565b600060208201905081810360008301526200071a81620006d8565b9050919050565b7f4d6178207469636b657473206d7573742062652067726561746572207468616e60008201527f2030000000000000000000000000000000000000000000000000000000000000602082015250565b60006200077f6022836200056e565b91506200078c8262000721565b604082019050919050565b60006020820190508181036000830152620007b28162000770565b9050919050565b7f4e487b7100000000000000000000000000000000000000000000000000000000600052601160045260246000fd5b6000620007f5826200048c565b915062000802836200048c565b925082820262000812816200048c565b915082820484148315176200082c576200082b620007b9565b5b5092915050565b600062000840826200048c565b91506200084d836200048c565b9250828201905080821115620008685762000867620007b9565b5b92915050565b60006200087b826200048c565b915062000888836200048c565b9250828203905081811115620008a357620008a2620007b9565b5b92915050565b7f4e487b7100000000000000000000000000000000000000000000000000000000600052601260045260246000fd5b6000620008e5826200048c565b9150620008f2836200048c565b925082620009055762000904620008a9565b5b828204905092915050565b7f4d6178207469636b6574732063616e6e6f74206265206c657373207468616e2060008201527f6d696e696d756d207061727469636970616e7473000000000000000000000000602082015250565b60006200096e6034836200056e565b91506200097b8262000910565b604082019050919050565b60006020820190508181036000830152620009a1816200095f565b9050919050565b600081519050919050565b7f4e487b7100000000000000000000000000000000000000000000000000000000600052602260045260246000fd5b60006002820490506001821680620009fb57607f821691505b60208210810362000a115762000a10620009b3565b5b50919050565b60008190508160005260206000209050919050565b60006020601f8301049050919050565b600082821b905092915050565b60006008830262000a7b7fffffffffffffffffffffffffffffffffffffffffffffffffffffffffffffffff8262000a3c565b62000a87868362000a3c565b95508019841693508086168417925050509392505050565b6000819050919050565b600062000aca62000ac462000abe846200048c565b62000a9f565b6200048c565b9050919050565b6000819050919050565b62000ae68362000aa9565b62000afe62000af58262000ad1565b84845462000a49565b825550505050565b600090565b62000b1562000b06565b62000b2281848462000adb565b505050565b5b8181101562000b4a5762000b3e60008262000b0b565b60018101905062000b28565b5050565b601f82111562000b995762000b638162000a17565b62000b6e8462000a2c565b8101602085101562000b7e578190505b62000b9662000b8d8562000a2c565b83018262000b27565b50505b505050565b600082821c905092915050565b600062000bbe6000198460080262000b9e565b1980831691505092915050565b600062000bd9838362000bab565b9150826002028217905092915050565b62000bf482620009a8565b67ffffffffffffffff81111562000c105762000c0f62000328565b5b62000c1c8254620009e2565b62000c2982828562000b4e565b600060209050601f83116001811462000c61576000841562000c4c578287015190505b62000c58858262000bcb565b86555062000cc8565b601f19841662000c718662000a17565b60005b8281101562000c9b5784890151825560018201915060208501945060208101905062000c74565b8683101562000cbb578489015162000cb7601f89168262000bab565b8355505b6001600288020188555050505b505050505050565b7f4e487b7100000000000000000000000000000000000000000000000000000000600052602160045260246000fd5b6124888062000d0f6000396000f3fe6080604052600436106101395760003560e01c806384bd3264116100ab578063a54cd4f71161006f578063a54cd4f71461042d578063b5545a3c14610458578063c19d93fb1461046f578063cabfaa181461049a578063dfbf53ae146104c5578063efeed224146104f057610179565b806384bd32641461035857806388279320146103955780638da5cb5b146103c05780639b894703146103eb5780639ead2f771461041657610179565b806335c1d349116100fd57806335c1d349146102555780634bde38c8146102925780635d306f34146102bd57806367dd74ca146102fa5780636f9fb98a14610316578063705332501461034157610179565b8063115cbaf51461017e5780631209b1f6146101a95780633197cbb6146101d457806334701db8146101ff578063359054d91461022a57610179565b36610179576040517f08c379a00000000000000000000000000000000000000000000000000000000081526004016101709061182c565b60405180910390fd5b600080fd5b34801561018a57600080fd5b5061019361051b565b6040516101a091906118cb565b60405180910390f35b3480156101b557600080fd5b506101be6106c1565b6040516101cb9190611906565b60405180910390f35b3480156101e057600080fd5b506101e96106c7565b6040516101f69190611906565b60405180910390f35b34801561020b57600080fd5b506102146106cd565b6040516102219190611906565b60405180910390f35b34801561023657600080fd5b5061023f6106d3565b60405161024c9190611906565b60405180910390f35b34801561026157600080fd5b5061027c60048036038101906102779190611952565b6106d9565b60405161028991906119c0565b60405180910390f35b34801561029e57600080fd5b506102a7610718565b6040516102b491906119c0565b60405180910390f35b3480156102c957600080fd5b506102e460048036038101906102df9190611a07565b61073e565b6040516102f19190611906565b60405180910390f35b610314600480360381019061030f9190611952565b610867565b005b34801561032257600080fd5b5061032b610bad565b6040516103389190611906565b60405180910390f35b34801561034d57600080fd5b50610356610bb5565b005b34801561036457600080fd5b5061037f600480360381019061037a9190611a07565b610d1b565b60405161038c9190611906565b60405180910390f35b3480156103a157600080fd5b506103aa610d33565b6040516103b79190611906565b60405180910390f35b3480156103cc57600080fd5b506103d5610d39565b6040516103e291906119c0565b60405180910390f35b3480156103f757600080fd5b50610400610d5d565b60405161040d9190611906565b60405180910390f35b34801561042257600080fd5b5061042b610d63565b005b34801561043957600080fd5b50610442610e41565b60405161044f9190611906565b60405180910390f35b34801561046457600080fd5b5061046d610e47565b005b34801561047b57600080fd5b5061048461118b565b6040516104919190611aab565b60405180910390f35b3480156104a657600080fd5b506104af61119e565b6040516104bc9190611906565b60405180910390f35b3480156104d157600080fd5b506104da6111ab565b6040516104e791906119c0565b60405180910390f35b3480156104fc57600080fd5b506105056111d1565b60405161051291906118cb565b60405180910390f35b60606000600381111561053157610530611a34565b5b600b60009054906101000a900460ff16600381111561055357610552611a34565b5b03610595576040518060400160405280600681526020017f416374697665000000000000000000000000000000000000000000000000000081525090506106be565b600160038111156105a9576105a8611a34565b5b600b60009054906101000a900460ff1660038111156105cb576105ca611a34565b5b0361060d576040518060400160405280600981526020017f436f6d706c65746564000000000000000000000000000000000000000000000081525090506106be565b6002600381111561062157610620611a34565b5b600b60009054906101000a900460ff16600381111561064357610642611a34565b5b03610685576040518060400160405280600881526020017f526566756e64656400000000000000000000000000000000000000000000000081525090506106be565b6040518060400160405280600981526020017f43616e63656c6c6564000000000000000000000000000000000000000000000081525090505b90565b60035481565b60055481565b60085481565b600c5481565b600a81815481106106e957600080fd5b906000526020600020016000915054906101000a900473ffffffffffffffffffffffffffffffffffffffff1681565b600160009054906101000a900473ffffffffffffffffffffffffffffffffffffffff1681565b60006002600381111561075457610753611a34565b5b600b60009054906101000a900460ff16600381111561077657610775611a34565b5b036107cf57600354600960008473ffffffffffffffffffffffffffffffffffffffff1673ffffffffffffffffffffffffffffffffffffffff168152602001908152602001600020546107c89190611af5565b9050610862565b6003808111156107e2576107e1611a34565b5b600b60009054906101000a900460ff16600381111561080457610803611a34565b5b0361085d57600c54600960008473ffffffffffffffffffffffffffffffffffffffff1673ffffffffffffffffffffffffffffffffffffffff168152602001908152602001600020546108569190611af5565b9050610862565b600090505b919050565b6000600381111561087b5761087a611a34565b5b600b60009054906101000a900460ff16600381111561089d5761089c611a34565b5b146108dd576040517f08c379a00000000000000000000000000000000000000000000000000000000081526004016108d490611b83565b60405180910390fd5b6005544210610921576040517f08c379a000000000000000000000000000000000000000000000000000000000815260040161091890611bef565b60405180910390fd5b8060035461092f9190611af5565b3414610970576040517f08c379a000000000000000000000000000000000000000000000000000000000815260040161096790611c5b565b60405180910390fd5b600081116109b3576040517f08c379a00000000000000000000000000000000000000000000000000000000081526004016109aa90611cc7565b60405180910390fd5b600754816008546109c49190611ce7565b1115610a05576040517f08c379a00000000000000000000000000000000000000000000000000000000081526004016109fc90611d67565b60405180910390fd5b6000600960003373ffffffffffffffffffffffffffffffffffffffff1673ffffffffffffffffffffffffffffffffffffffff1681526020019081526020016000205403610ab057600a339080600181540180825580915050600190039060005260206000200160009091909190916101000a81548173ffffffffffffffffffffffffffffffffffffffff021916908373ffffffffffffffffffffffffffffffffffffffff1602179055505b80600960003373ffffffffffffffffffffffffffffffffffffffff1673ffffffffffffffffffffffffffffffffffffffff1681526020019081526020016000206000828254610aff9190611ce7565b925050819055508060086000828254610b189190611ce7565b925050819055507f0668f5b446eb814fe35b3206f43f14bd8567ba04ddaf7a3ee56516929ab22ccb3382604051610b50929190611d87565b60405180910390a160075460085410610ba9577f85d83d33f2b872ef415dac4eba26e565177cb86ac6a54b50a9c84783a0c50cf9600754604051610b949190611906565b60405180910390a1610ba461125f565b610baa565b5b50565b600047905090565b60008054906101000a900473ffffffffffffffffffffffffffffffffffffffff1673ffffffffffffffffffffffffffffffffffffffff163373ffffffffffffffffffffffffffffffffffffffff1614610c43576040517f08c379a0000000000000000000000000000000000000000000000000000000008152600401610c3a90611e22565b60405180910390fd5b60006003811115610c5757610c56611a34565b5b600b60009054906101000a900460ff166003811115610c7957610c78611a34565b5b14610cb9576040517f08c379a0000000000000000000000000000000000000000000000000000000008152600401610cb090611b83565b60405180910390fd5b6003600b60006101000a81548160ff02191690836003811115610cdf57610cde611a34565b5b0217905550600354600c819055507f90e8484a98b653b6def19811c0e3811715da0de9c6b90d013442ba7e7541295160405160405180910390a1565b60096020528060005260406000206000915090505481565b60045481565b60008054906101000a900473ffffffffffffffffffffffffffffffffffffffff1681565b60075481565b600554421015610da8576040517f08c379a0000000000000000000000000000000000000000000000000000000008152600401610d9f90611e8e565b60405180910390fd5b60006003811115610dbc57610dbb611a34565b5b600b60009054906101000a900460ff166003811115610dde57610ddd611a34565b5b14610e1e576040517f08c379a0000000000000000000000000000000000000000000000000000000008152600401610e1590611efa565b60405180910390fd5b60065460085410610e3657610e3161125f565b610e3f565b610e3e611620565b5b565b60065481565b60026003811115610e5b57610e5a611a34565b5b600b60009054906101000a900460ff166003811115610e7d57610e7c611a34565b5b1480610ebb5750600380811115610e9757610e96611a34565b5b600b60009054906101000a900460ff166003811115610eb957610eb8611a34565b5b145b610efa576040517f08c379a0000000000000000000000000000000000000000000000000000000008152600401610ef190611f66565b60405180910390fd5b6000600960003373ffffffffffffffffffffffffffffffffffffffff1673ffffffffffffffffffffffffffffffffffffffff1681526020019081526020016000205411610f7c576040517f08c379a0000000000000000000000000000000000000000000000000000000008152600401610f7390611fd2565b60405180910390fd5b600060026003811115610f9257610f91611a34565b5b600b60009054906101000a900460ff166003811115610fb457610fb3611a34565b5b0361100d57600354600960003373ffffffffffffffffffffffffffffffffffffffff1673ffffffffffffffffffffffffffffffffffffffff168152602001908152602001600020546110069190611af5565b905061105d565b600c54600960003373ffffffffffffffffffffffffffffffffffffffff1673ffffffffffffffffffffffffffffffffffffffff1681526020019081526020016000205461105a9190611af5565b90505b6000600960003373ffffffffffffffffffffffffffffffffffffffff1673ffffffffffffffffffffffffffffffffffffffff1681526020019081526020016000208190555060003373ffffffffffffffffffffffffffffffffffffffff16826040516110c890612023565b60006040518083038185875af1925050503d8060008114611105576040519150601f19603f3d011682016040523d82523d6000602084013e61110a565b606091505b505090508061114e576040517f08c379a000000000000000000000000000000000000000000000000000000000815260040161114590612084565b60405180910390fd5b7f358fe4192934d3bf28ae181feda1f4bd08ca67f5e2fad55582cce5eb67304ae9338360405161117f929190611d87565b60405180910390a15050565b600b60009054906101000a900460ff1681565b6000600a80549050905090565b600b60019054906101000a900473ffffffffffffffffffffffffffffffffffffffff1681565b600280546111de906120d3565b80601f016020809104026020016040519081016040528092919081815260200182805461120a906120d3565b80156112575780601f1061122c57610100808354040283529160200191611257565b820191906000526020600020905b81548152906001019060200180831161123a57829003601f168201915b505050505081565b600060014361126e9190612104565b404260085460405160200161128593929190612184565b6040516020818303038152906040528051906020012060001c90506000600854826112b091906121f0565b90506112bb81611679565b600b60016101000a81548173ffffffffffffffffffffffffffffffffffffffff021916908373ffffffffffffffffffffffffffffffffffffffff1602179055506000600b60019054906101000a900473ffffffffffffffffffffffffffffffffffffffff1673ffffffffffffffffffffffffffffffffffffffff1660045460405161134590612023565b60006040518083038185875af1925050503d8060008114611382576040519150601f19603f3d011682016040523d82523d6000602084013e611387565b606091505b50509050806113cb576040517f08c379a00000000000000000000000000000000000000000000000000000000081526004016113c29061226d565b60405180910390fd5b600047905060006064600a836113e19190611af5565b6113eb919061228d565b9050600160009054906101000a900473ffffffffffffffffffffffffffffffffffffffff1673ffffffffffffffffffffffffffffffffffffffff168160405161143390612023565b60006040518083038185875af1925050503d8060008114611470576040519150601f19603f3d011682016040523d82523d6000602084013e611475565b606091505b505080935050826114bb576040517f08c379a00000000000000000000000000000000000000000000000000000000081526004016114b29061230a565b60405180910390fd5b600047905060008054906101000a900473ffffffffffffffffffffffffffffffffffffffff1673ffffffffffffffffffffffffffffffffffffffff168160405161150490612023565b60006040518083038185875af1925050503d8060008114611541576040519150601f19603f3d011682016040523d82523d6000602084013e611546565b606091505b5050809450508361158c576040517f08c379a000000000000000000000000000000000000000000000000000000000815260040161158390612376565b60405180910390fd5b6001600b60006101000a81548160ff021916908360038111156115b2576115b1611a34565b5b02179055507fd68f9ce710916e9d3d07db535bad7f5969f023c3a630d7de051092fa245d791d600b60019054906101000a900473ffffffffffffffffffffffffffffffffffffffff1660045483856040516116109493929190612396565b60405180910390a1505050505050565b6002600b60006101000a81548160ff0219169083600381111561164657611645611a34565b5b02179055507fc0dc2c128f5b4404608f14ac9e6b756261aca803c33a4fdaef4a3cc647d814ef60405160405180910390a1565b6000806000905060005b600a8054905081101561177e5760096000600a83815481106116a8576116a76123db565b5b9060005260206000200160009054906101000a900473ffffffffffffffffffffffffffffffffffffffff1673ffffffffffffffffffffffffffffffffffffffff1673ffffffffffffffffffffffffffffffffffffffff16815260200190815260200160002054826117199190611ce7565b91508382111561176b57600a8181548110611737576117366123db565b5b9060005260206000200160009054906101000a900473ffffffffffffffffffffffffffffffffffffffff16925050506117a4565b80806117769061240a565b915050611683565b5060008054906101000a900473ffffffffffffffffffffffffffffffffffffffff169150505b919050565b600082825260208201905092915050565b7f506c656173652075736520746865206275795469636b65742066756e6374696f60008201527f6e00000000000000000000000000000000000000000000000000000000000000602082015250565b60006118166021836117a9565b9150611821826117ba565b604082019050919050565b6000602082019050818103600083015261184581611809565b9050919050565b600081519050919050565b60005b8381101561187557808201518184015260208101905061185a565b60008484015250505050565b6000601f19601f8301169050919050565b600061189d8261184c565b6118a781856117a9565b93506118b7818560208601611857565b6118c081611881565b840191505092915050565b600060208201905081810360008301526118e58184611892565b905092915050565b6000819050919050565b611900816118ed565b82525050565b600060208201905061191b60008301846118f7565b92915050565b600080fd5b61192f816118ed565b811461193a57600080fd5b50565b60008135905061194c81611926565b92915050565b60006020828403121561196857611967611921565b5b60006119768482850161193d565b91505092915050565b600073ffffffffffffffffffffffffffffffffffffffff82169050919050565b60006119aa8261197f565b9050919050565b6119ba8161199f565b82525050565b60006020820190506119d560008301846119b1565b92915050565b6119e48161199f565b81146119ef57600080fd5b50565b600081359050611a01816119db565b92915050565b600060208284031215611a1d57611a1c611921565b5b6000611a2b848285016119f2565b91505092915050565b7f4e487b7100000000000000000000000000000000000000000000000000000000600052602160045260246000fd5b60048110611a7457611a73611a34565b5b50565b6000819050611a8582611a63565b919050565b6000611a9582611a77565b9050919050565b611aa581611a8a565b82525050565b6000602082019050611ac06000830184611a9c565b92915050565b7f4e487b7100000000000000000000000000000000000000000000000000000000600052601160045260246000fd5b6000611b00826118ed565b9150611b0b836118ed565b9250828202611b19816118ed565b91508282048414831517611b3057611b2f611ac6565b5b5092915050565b7f526166666c65206973206e6f7420616374697665000000000000000000000000600082015250565b6000611b6d6014836117a9565b9150611b7882611b37565b602082019050919050565b60006020820190508181036000830152611b9c81611b60565b9050919050565b7f526166666c652068617320656e64656400000000000000000000000000000000600082015250565b6000611bd96010836117a9565b9150611be482611ba3565b602082019050919050565b60006020820190508181036000830152611c0881611bcc565b9050919050565b7f496e636f72726563742045544820616d6f756e74000000000000000000000000600082015250565b6000611c456014836117a9565b9150611c5082611c0f565b602082019050919050565b60006020820190508181036000830152611c7481611c38565b9050919050565b7f5175616e74697479206d7573742062652067726561746572207468616e203000600082015250565b6000611cb1601f836117a9565b9150611cbc82611c7b565b602082019050919050565b60006020820190508181036000830152611ce081611ca4565b9050919050565b6000611cf2826118ed565b9150611cfd836118ed565b9250828201905080821115611d1557611d14611ac6565b5b92915050565b7f45786365656473206d6178696d756d207469636b657473206c696d6974000000600082015250565b6000611d51601d836117a9565b9150611d5c82611d1b565b602082019050919050565b60006020820190508181036000830152611d8081611d44565b9050919050565b6000604082019050611d9c60008301856119b1565b611da960208301846118f7565b9392505050565b7f4f6e6c79206f776e65722063616e2063616c6c20746869732066756e6374696f60008201527f6e00000000000000000000000000000000000000000000000000000000000000602082015250565b6000611e0c6021836117a9565b9150611e1782611db0565b604082019050919050565b60006020820190508181036000830152611e3b81611dff565b9050919050565b7f526166666c6520686173206e6f7420656e646564207965740000000000000000600082015250565b6000611e786018836117a9565b9150611e8382611e42565b602082019050919050565b60006020820190508181036000830152611ea781611e6b565b9050919050565b7f526166666c6520616c72656164792066696e616c697a65640000000000000000600082015250565b6000611ee46018836117a9565b9150611eef82611eae565b602082019050919050565b60006020820190508181036000830152611f1381611ed7565b9050919050565b7f4e6f20726566756e6420617661696c61626c6500000000000000000000000000600082015250565b6000611f506013836117a9565b9150611f5b82611f1a565b602082019050919050565b60006020820190508181036000830152611f7f81611f43565b9050919050565b7f4e6f207469636b65747320746f20726566756e64000000000000000000000000600082015250565b6000611fbc6014836117a9565b9150611fc782611f86565b602082019050919050565b60006020820190508181036000830152611feb81611faf565b9050919050565b600081905092915050565b50565b600061200d600083611ff2565b915061201882611ffd565b600082019050919050565b600061202e82612000565b9150819050919050565b7f526566756e64207472616e73666572206661696c656400000000000000000000600082015250565b600061206e6016836117a9565b915061207982612038565b602082019050919050565b6000602082019050818103600083015261209d81612061565b9050919050565b7f4e487b7100000000000000000000000000000000000000000000000000000000600052602260045260246000fd5b600060028204905060018216806120eb57607f821691505b6020821081036120fe576120fd6120a4565b5b50919050565b600061210f826118ed565b915061211a836118ed565b925082820390508181111561213257612131611ac6565b5b92915050565b6000819050919050565b6000819050919050565b61215d61215882612138565b612142565b82525050565b6000819050919050565b61217e612179826118ed565b612163565b82525050565b6000612190828661214c565b6020820191506121a0828561216d565b6020820191506121b0828461216d565b602082019150819050949350505050565b7f4e487b7100000000000000000000000000000000000000000000000000000000600052601260045260246000fd5b60006121fb826118ed565b9150612206836118ed565b925082612216576122156121c1565b5b828206905092915050565b7f5072697a65207472616e73666572206661696c65640000000000000000000000600082015250565b60006122576015836117a9565b915061226282612221565b602082019050919050565b600060208201905081810360008301526122868161224a565b9050919050565b6000612298826118ed565b91506122a3836118ed565b9250826122b3576122b26121c1565b5b828204905092915050565b7f506c6174666f726d207472616e73666572206661696c65640000000000000000600082015250565b60006122f46018836117a9565b91506122ff826122be565b602082019050919050565b60006020820190508181036000830152612323816122e7565b9050919050565b7f4f776e6572207472616e73666572206661696c65640000000000000000000000600082015250565b60006123606015836117a9565b915061236b8261232a565b602082019050919050565b6000602082019050818103600083015261238f81612353565b9050919050565b60006080820190506123ab60008301876119b1565b6123b860208301866118f7565b6123c560408301856118f7565b6123d260608301846118f7565b95945050505050565b7f4e487b7100000000000000000000000000000000000000000000000000000000600052603260045260246000fd5b6000612415826118ed565b91507fffffffffffffffffffffffffffffffffffffffffffffffffffffffffffffffff820361244757612446611ac6565b5b60018201905091905056fea2646970667358221220bad46bae95c635235678830742b47ebecca6f85cc97c15f4cc5a10d73141f86364736f6c63430008130033",
  "linkReferences": {},
  "deployedLinkReferences": {}
}