{
  "_format": "hh-sol-artifact-1",
  "contractName": "AutoRaffle",
  "sourceName": "contracts/RaffleManager.sol",
  "abi": [
    {
      "inputs": [
        {
          "internalType": "uint256",
          "name": "_ticketPrice",
          "type": "uint256"
        },
        {
          "internalType": "uint256",
          "name": "_prizeValue",
          "type": "uint256"
        },
        {
          "internalType": "uint256",
          "name": "_duration",
          "type": "uint256"
        },
        {
          "internalType": "uint256",
          "name": "_maxTickets",
          "type": "uint256"
        }
      ],
      "stateMutability": "nonpayable",
      "type": "constructor"
    },
    {
      "anonymous": false,
      "inputs": [
        {
          "indexed": false,
          "internalType": "uint256",
          "name": "maxTickets",
          "type": "uint256"
        }
      ],
      "name": "MaxTicketsReached",
      "type": "event"
    },
    {
      "anonymous": false,
      "inputs": [],
      "name": "RaffleCancelled",
      "type": "event"
    },
    {
      "anonymous": false,
      "inputs": [
        {
          "indexed": false,
          "internalType": "address",
          "name": "winner",
          "type": "address"
        },
        {
          "indexed": false,
          "internalType": "uint256",
          "name": "prize",
          "type": "uint256"
        },
        {
          "indexed": false,
          "internalType": "uint256",
          "name": "ownerProfit",
          "type": "uint256"
        },
        {
          "indexed": false,
          "internalType": "uint256",
          "name": "platformFee",
          "type": "uint256"
        }
      ],
      "name": "RaffleCompleted",
      "type": "event"
    },
    {
      "anonymous": false,
      "inputs": [],
      "name": "RaffleRefunded",
      "type": "event"
    },
    {
      "anonymous": false,
      "inputs": [
        {
          "indexed": false,
          "internalType": "address",
          "name": "participant",
          "type": "address"
        },
        {
          "indexed": false,
          "internalType": "uint256",
          "name": "amount",
          "type": "uint256"
        }
      ],
      "name": "RefundClaimed",
      "type": "event"
    },
    {
      "anonymous": false,
      "inputs": [
        {
          "indexed": false,
          "internalType": "address",
          "name": "buyer",
          "type": "address"
        },
        {
          "indexed": false,
          "internalType": "uint256",
          "name": "quantity",
          "type": "uint256"
        }
      ],
      "name": "TicketPurchased",
      "type": "event"
    },
    {
      "inputs": [
        {
          "internalType": "uint256",
          "name": "_quantity",
          "type": "uint256"
        }
      ],
      "name": "buyTicket",
      "outputs": [],
      "stateMutability": "payable",
      "type": "function"
    },
    {
      "inputs": [],
      "name": "cancelRaffle",
      "outputs": [],
      "stateMutability": "nonpayable",
      "type": "function"
    },
    {
      "inputs": [],
      "name": "claimRefund",
      "outputs": [],
      "stateMutability": "nonpayable",
      "type": "function"
    },
    {
      "inputs": [],
      "name": "endTime",
      "outputs": [
        {
          "internalType": "uint256",
          "name": "",
          "type": "uint256"
        }
      ],
      "stateMutability": "view",
      "type": "function"
    },
    {
      "inputs": [],
      "name": "finalizeRaffle",
      "outputs": [],
      "stateMutability": "nonpayable",
      "type": "function"
    },
    {
      "inputs": [],
      "name": "getContractBalance",
      "outputs": [
        {
          "internalType": "uint256",
          "name": "",
          "type": "uint256"
        }
      ],
      "stateMutability": "view",
      "type": "function"
    },
    {
      "inputs": [],
      "name": "getParticipantsCount",
      "outputs": [
        {
          "internalType": "uint256",
          "name": "",
          "type": "uint256"
        }
      ],
      "stateMutability": "view",
      "type": "function"
    },
    {
      "inputs": [],
      "name": "getRaffleState",
      "outputs": [
        {
          "internalType": "string",
          "name": "",
          "type": "string"
        }
      ],
      "stateMutability": "view",
      "type": "function"
    },
    {
      "inputs": [
        {
          "internalType": "address",
          "name": "participant",
          "type": "address"
        }
      ],
      "name": "getRefundAmount",
      "outputs": [
        {
          "internalType": "uint256",
          "name": "",
          "type": "uint256"
        }
      ],
      "stateMutability": "view",
      "type": "function"
    },
    {
      "inputs": [],
      "name": "maxTickets",
      "outputs": [
        {
          "internalType": "uint256",
          "name": "",
          "type": "uint256"
        }
      ],
      "stateMutability": "view",
      "type": "function"
    },
    {
      "inputs": [],
      "name": "minParticipants",
      "outputs": [
        {
          "internalType": "uint256",
          "name": "",
          "type": "uint256"
        }
      ],
      "stateMutability": "view",
      "type": "function"
    },
    {
      "inputs": [],
      "name": "owner",
      "outputs": [
        {
          "internalType": "address",
          "name": "",
          "type": "address"
        }
      ],
      "stateMutability": "view",
      "type": "function"
    },
    {
      "inputs": [
        {
          "internalType": "uint256",
          "name": "",
          "type": "uint256"
        }
      ],
      "name": "participants",
      "outputs": [
        {
          "internalType": "address",
          "name": "",
          "type": "address"
        }
      ],
      "stateMutability": "view",
      "type": "function"
    },
    {
      "inputs": [],
      "name": "platform",
      "outputs": [
        {
          "internalType": "address",
          "name": "",
          "type": "address"
        }
      ],
      "stateMutability": "view",
      "type": "function"
    },
    {
      "inputs": [],
      "name": "prizeValue",
      "outputs": [
        {
          "internalType": "uint256",
          "name": "",
          "type": "uint256"
        }
      ],
      "stateMutability": "view",
      "type": "function"
    },
    {
      "inputs": [],
      "name": "refundAmountPerTicket",
      "outputs": [
        {
          "internalType": "uint256",
          "name": "",
          "type": "uint256"
        }
      ],
      "stateMutability": "view",
      "type": "function"
    },
    {
      "inputs": [],
      "name": "state",
      "outputs": [
        {
          "internalType": "enum AutoRaffle.RaffleState",
          "name": "",
          "type": "uint8"
        }
      ],
      "stateMutability": "view",
      "type": "function"
    },
    {
      "inputs": [],
      "name": "ticketPrice",
      "outputs": [
        {
          "internalType": "uint256",
          "name": "",
          "type": "uint256"
        }
      ],
      "stateMutability": "view",
      "type": "function"
    },
    {
      "inputs": [
        {
          "internalType": "address",
          "name": "",
          "type": "address"
        }
      ],
      "name": "ticketsBought",
      "outputs": [
        {
          "internalType": "uint256",
          "name": "",
          "type": "uint256"
        }
      ],
      "stateMutability": "view",
      "type": "function"
    },
    {
      "inputs": [],
      "name": "totalTicketsSold",
      "outputs": [
        {
          "internalType": "uint256",
          "name": "",
          "type": "uint256"
        }
      ],
      "stateMutability": "view",
      "type": "function"
    },
    {
      "inputs": [],
      "name": "winner",
      "outputs": [
        {
          "internalType": "address",
          "name": "",
          "type": "address"
        }
      ],
      "stateMutability": "view",
      "type": "function"
    },
    {
      "stateMutability": "payable",
      "type": "receive"
    }
  ],
  "bytecode": "0x6080604052730fade5b267b572dc1f002d1b9148976ccce9c8c8600160006101000a81548173ffffffffffffffffffffffffffffffffffffffff021916908373ffffffffffffffffffffffffffffffffffffffff1602179055503480156200006657600080fd5b5060405162002b7538038062002b7583398181016040528101906200008c919062000326565b60008411620000d2576040517f08c379a0000000000000000000000000000000000000000000000000000000008152600401620000c9906200041f565b60405180910390fd5b6000831162000118576040517f08c379a00000000000000000000000000000000000000000000000000000000081526004016200010f90620004b7565b60405180910390fd5b600082116200015e576040517f08c379a0000000000000000000000000000000000000000000000000000000008152600401620001559062000529565b60405180910390fd5b60008111620001a4576040517f08c379a00000000000000000000000000000000000000000000000000000000081526004016200019b90620005c1565b60405180910390fd5b600a84620001b3919062000612565b6001600a86620001c4919062000612565b600b86620001d3919062000612565b620001df91906200065d565b620001eb919062000698565b620001f7919062000702565b60058190555060055481101562000245576040517f08c379a00000000000000000000000000000000000000000000000000000000081526004016200023c90620007b0565b60405180910390fd5b336000806101000a81548173ffffffffffffffffffffffffffffffffffffffff021916908373ffffffffffffffffffffffffffffffffffffffff16021790555083600281905550826003819055508142620002a191906200065d565b600481905550806006819055506000600a60006101000a81548160ff02191690836003811115620002d757620002d6620007d2565b5b02179055505050505062000801565b600080fd5b6000819050919050565b6200030081620002eb565b81146200030c57600080fd5b50565b6000815190506200032081620002f5565b92915050565b60008060008060808587031215620003435762000342620002e6565b5b600062000353878288016200030f565b945050602062000366878288016200030f565b935050604062000379878288016200030f565b92505060606200038c878288016200030f565b91505092959194509250565b600082825260208201905092915050565b7f5469636b6574207072696365206d75737420626520677265617465722074686160008201527f6e20300000000000000000000000000000000000000000000000000000000000602082015250565b60006200040760238362000398565b91506200041482620003a9565b604082019050919050565b600060208201905081810360008301526200043a81620003f8565b9050919050565b7f5072697a652076616c7565206d7573742062652067726561746572207468616e60008201527f2030000000000000000000000000000000000000000000000000000000000000602082015250565b60006200049f60228362000398565b9150620004ac8262000441565b604082019050919050565b60006020820190508181036000830152620004d28162000490565b9050919050565b7f4475726174696f6e206d7573742062652067726561746572207468616e203000600082015250565b600062000511601f8362000398565b91506200051e82620004d9565b602082019050919050565b60006020820190508181036000830152620005448162000502565b9050919050565b7f4d6178207469636b657473206d7573742062652067726561746572207468616e60008201527f2030000000000000000000000000000000000000000000000000000000000000602082015250565b6000620005a960228362000398565b9150620005b6826200054b565b604082019050919050565b60006020820190508181036000830152620005dc816200059a565b9050919050565b7f4e487b7100000000000000000000000000000000000000000000000000000000600052601160045260246000fd5b60006200061f82620002eb565b91506200062c83620002eb565b92508282026200063c81620002eb565b91508282048414831517620006565762000655620005e3565b5b5092915050565b60006200066a82620002eb565b91506200067783620002eb565b9250828201905080821115620006925762000691620005e3565b5b92915050565b6000620006a582620002eb565b9150620006b283620002eb565b9250828203905081811115620006cd57620006cc620005e3565b5b92915050565b7f4e487b7100000000000000000000000000000000000000000000000000000000600052601260045260246000fd5b60006200070f82620002eb565b91506200071c83620002eb565b9250826200072f576200072e620006d3565b5b828204905092915050565b7f4d6178207469636b6574732063616e6e6f74206265206c657373207468616e2060008201527f6d696e696d756d207061727469636970616e7473000000000000000000000000602082015250565b60006200079860348362000398565b9150620007a5826200073a565b604082019050919050565b60006020820190508181036000830152620007cb8162000789565b9050919050565b7f4e487b7100000000000000000000000000000000000000000000000000000000600052602160045260246000fd5b61236480620008116000396000f3fe60806040526004361061012e5760003560e01c806370533250116100ab5780639ead2f771161006f5780639ead2f771461040b578063a54cd4f714610422578063b5545a3c1461044d578063c19d93fb14610464578063cabfaa181461048f578063dfbf53ae146104ba5761016e565b8063705332501461033657806384bd32641461034d578063882793201461038a5780638da5cb5b146103b55780639b894703146103e05761016e565b806335c1d349116100f257806335c1d3491461024a5780634bde38c8146102875780635d306f34146102b257806367dd74ca146102ef5780636f9fb98a1461030b5761016e565b8063115cbaf5146101735780631209b1f61461019e5780633197cbb6146101c957806334701db8146101f4578063359054d91461021f5761016e565b3661016e576040517f08c379a000000000000000000000000000000000000000000000000000000000815260040161016590611768565b60405180910390fd5b600080fd5b34801561017f57600080fd5b506101886104e5565b6040516101959190611807565b60405180910390f35b3480156101aa57600080fd5b506101b361068b565b6040516101c09190611842565b60405180910390f35b3480156101d557600080fd5b506101de610691565b6040516101eb9190611842565b60405180910390f35b34801561020057600080fd5b50610209610697565b6040516102169190611842565b60405180910390f35b34801561022b57600080fd5b5061023461069d565b6040516102419190611842565b60405180910390f35b34801561025657600080fd5b50610271600480360381019061026c919061188e565b6106a3565b60405161027e91906118fc565b60405180910390f35b34801561029357600080fd5b5061029c6106e2565b6040516102a991906118fc565b60405180910390f35b3480156102be57600080fd5b506102d960048036038101906102d49190611943565b610708565b6040516102e69190611842565b60405180910390f35b6103096004803603810190610304919061188e565b610831565b005b34801561031757600080fd5b50610320610b77565b60405161032d9190611842565b60405180910390f35b34801561034257600080fd5b5061034b610b7f565b005b34801561035957600080fd5b50610374600480360381019061036f9190611943565b610ce5565b6040516103819190611842565b60405180910390f35b34801561039657600080fd5b5061039f610cfd565b6040516103ac9190611842565b60405180910390f35b3480156103c157600080fd5b506103ca610d03565b6040516103d791906118fc565b60405180910390f35b3480156103ec57600080fd5b506103f5610d27565b6040516104029190611842565b60405180910390f35b34801561041757600080fd5b50610420610d2d565b005b34801561042e57600080fd5b50610437610e0b565b6040516104449190611842565b60405180910390f35b34801561045957600080fd5b50610462610e11565b005b34801561047057600080fd5b50610479611155565b60405161048691906119e7565b60405180910390f35b34801561049b57600080fd5b506104a4611168565b6040516104b19190611842565b60405180910390f35b3480156104c657600080fd5b506104cf611175565b6040516104dc91906118fc565b60405180910390f35b6060600060038111156104fb576104fa611970565b5b600a60009054906101000a900460ff16600381111561051d5761051c611970565b5b0361055f576040518060400160405280600681526020017f41637469766500000000000000000000000000000000000000000000000000008152509050610688565b6001600381111561057357610572611970565b5b600a60009054906101000a900460ff16600381111561059557610594611970565b5b036105d7576040518060400160405280600981526020017f436f6d706c6574656400000000000000000000000000000000000000000000008152509050610688565b600260038111156105eb576105ea611970565b5b600a60009054906101000a900460ff16600381111561060d5761060c611970565b5b0361064f576040518060400160405280600881526020017f526566756e6465640000000000000000000000000000000000000000000000008152509050610688565b6040518060400160405280600981526020017f43616e63656c6c6564000000000000000000000000000000000000000000000081525090505b90565b60025481565b60045481565b60075481565b600b5481565b600981815481106106b357600080fd5b906000526020600020016000915054906101000a900473ffffffffffffffffffffffffffffffffffffffff1681565b600160009054906101000a900473ffffffffffffffffffffffffffffffffffffffff1681565b60006002600381111561071e5761071d611970565b5b600a60009054906101000a900460ff1660038111156107405761073f611970565b5b0361079957600254600860008473ffffffffffffffffffffffffffffffffffffffff1673ffffffffffffffffffffffffffffffffffffffff168152602001908152602001600020546107929190611a31565b905061082c565b6003808111156107ac576107ab611970565b5b600a60009054906101000a900460ff1660038111156107ce576107cd611970565b5b0361082757600b54600860008473ffffffffffffffffffffffffffffffffffffffff1673ffffffffffffffffffffffffffffffffffffffff168152602001908152602001600020546108209190611a31565b905061082c565b600090505b919050565b6000600381111561084557610844611970565b5b600a60009054906101000a900460ff16600381111561086757610866611970565b5b146108a7576040517f08c379a000000000000000000000000000000000000000000000000000000000815260040161089e90611abf565b60405180910390fd5b60045442106108eb576040517f08c379a00000000000000000000000000000000000000000000000000000000081526004016108e290611b2b565b60405180910390fd5b806002546108f99190611a31565b341461093a576040517f08c379a000000000000000000000000000000000000000000000000000000000815260040161093190611b97565b60405180910390fd5b6000811161097d576040517f08c379a000000000000000000000000000000000000000000000000000000000815260040161097490611c03565b60405180910390fd5b6006548160075461098e9190611c23565b11156109cf576040517f08c379a00000000000000000000000000000000000000000000000000000000081526004016109c690611ca3565b60405180910390fd5b6000600860003373ffffffffffffffffffffffffffffffffffffffff1673ffffffffffffffffffffffffffffffffffffffff1681526020019081526020016000205403610a7a576009339080600181540180825580915050600190039060005260206000200160009091909190916101000a81548173ffffffffffffffffffffffffffffffffffffffff021916908373ffffffffffffffffffffffffffffffffffffffff1602179055505b80600860003373ffffffffffffffffffffffffffffffffffffffff1673ffffffffffffffffffffffffffffffffffffffff1681526020019081526020016000206000828254610ac99190611c23565b925050819055508060076000828254610ae29190611c23565b925050819055507f0668f5b446eb814fe35b3206f43f14bd8567ba04ddaf7a3ee56516929ab22ccb3382604051610b1a929190611cc3565b60405180910390a160065460075410610b73577f85d83d33f2b872ef415dac4eba26e565177cb86ac6a54b50a9c84783a0c50cf9600654604051610b5e9190611842565b60405180910390a1610b6e61119b565b610b74565b5b50565b600047905090565b60008054906101000a900473ffffffffffffffffffffffffffffffffffffffff1673ffffffffffffffffffffffffffffffffffffffff163373ffffffffffffffffffffffffffffffffffffffff1614610c0d576040517f08c379a0000000000000000000000000000000000000000000000000000000008152600401610c0490611d5e565b60405180910390fd5b60006003811115610c2157610c20611970565b5b600a60009054906101000a900460ff166003811115610c4357610c42611970565b5b14610c83576040517f08c379a0000000000000000000000000000000000000000000000000000000008152600401610c7a90611abf565b60405180910390fd5b6003600a60006101000a81548160ff02191690836003811115610ca957610ca8611970565b5b0217905550600254600b819055507f90e8484a98b653b6def19811c0e3811715da0de9c6b90d013442ba7e7541295160405160405180910390a1565b60086020528060005260406000206000915090505481565b60035481565b60008054906101000a900473ffffffffffffffffffffffffffffffffffffffff1681565b60065481565b600454421015610d72576040517f08c379a0000000000000000000000000000000000000000000000000000000008152600401610d6990611dca565b60405180910390fd5b60006003811115610d8657610d85611970565b5b600a60009054906101000a900460ff166003811115610da857610da7611970565b5b14610de8576040517f08c379a0000000000000000000000000000000000000000000000000000000008152600401610ddf90611e36565b60405180910390fd5b60055460075410610e0057610dfb61119b565b610e09565b610e0861155c565b5b565b60055481565b60026003811115610e2557610e24611970565b5b600a60009054906101000a900460ff166003811115610e4757610e46611970565b5b1480610e855750600380811115610e6157610e60611970565b5b600a60009054906101000a900460ff166003811115610e8357610e82611970565b5b145b610ec4576040517f08c379a0000000000000000000000000000000000000000000000000000000008152600401610ebb90611ea2565b60405180910390fd5b6000600860003373ffffffffffffffffffffffffffffffffffffffff1673ffffffffffffffffffffffffffffffffffffffff1681526020019081526020016000205411610f46576040517f08c379a0000000000000000000000000000000000000000000000000000000008152600401610f3d90611f0e565b60405180910390fd5b600060026003811115610f5c57610f5b611970565b5b600a60009054906101000a900460ff166003811115610f7e57610f7d611970565b5b03610fd757600254600860003373ffffffffffffffffffffffffffffffffffffffff1673ffffffffffffffffffffffffffffffffffffffff16815260200190815260200160002054610fd09190611a31565b9050611027565b600b54600860003373ffffffffffffffffffffffffffffffffffffffff1673ffffffffffffffffffffffffffffffffffffffff168152602001908152602001600020546110249190611a31565b90505b6000600860003373ffffffffffffffffffffffffffffffffffffffff1673ffffffffffffffffffffffffffffffffffffffff1681526020019081526020016000208190555060003373ffffffffffffffffffffffffffffffffffffffff168260405161109290611f5f565b60006040518083038185875af1925050503d80600081146110cf576040519150601f19603f3d011682016040523d82523d6000602084013e6110d4565b606091505b5050905080611118576040517f08c379a000000000000000000000000000000000000000000000000000000000815260040161110f90611fc0565b60405180910390fd5b7f358fe4192934d3bf28ae181feda1f4bd08ca67f5e2fad55582cce5eb67304ae93383604051611149929190611cc3565b60405180910390a15050565b600a60009054906101000a900460ff1681565b6000600980549050905090565b600a60019054906101000a900473ffffffffffffffffffffffffffffffffffffffff1681565b60006001436111aa9190611fe0565b40426007546040516020016111c193929190612060565b6040516020818303038152906040528051906020012060001c90506000600754826111ec91906120cc565b90506111f7816115b5565b600a60016101000a81548173ffffffffffffffffffffffffffffffffffffffff021916908373ffffffffffffffffffffffffffffffffffffffff1602179055506000600a60019054906101000a900473ffffffffffffffffffffffffffffffffffffffff1673ffffffffffffffffffffffffffffffffffffffff1660035460405161128190611f5f565b60006040518083038185875af1925050503d80600081146112be576040519150601f19603f3d011682016040523d82523d6000602084013e6112c3565b606091505b5050905080611307576040517f08c379a00000000000000000000000000000000000000000000000000000000081526004016112fe90612149565b60405180910390fd5b600047905060006064600a8361131d9190611a31565b6113279190612169565b9050600160009054906101000a900473ffffffffffffffffffffffffffffffffffffffff1673ffffffffffffffffffffffffffffffffffffffff168160405161136f90611f5f565b60006040518083038185875af1925050503d80600081146113ac576040519150601f19603f3d011682016040523d82523d6000602084013e6113b1565b606091505b505080935050826113f7576040517f08c379a00000000000000000000000000000000000000000000000000000000081526004016113ee906121e6565b60405180910390fd5b600047905060008054906101000a900473ffffffffffffffffffffffffffffffffffffffff1673ffffffffffffffffffffffffffffffffffffffff168160405161144090611f5f565b60006040518083038185875af1925050503d806000811461147d576040519150601f19603f3d011682016040523d82523d6000602084013e611482565b606091505b505080945050836114c8576040517f08c379a00000000000000000000000000000000000000000000000000000000081526004016114bf90612252565b60405180910390fd5b6001600a60006101000a81548160ff021916908360038111156114ee576114ed611970565b5b02179055507fd68f9ce710916e9d3d07db535bad7f5969f023c3a630d7de051092fa245d791d600a60019054906101000a900473ffffffffffffffffffffffffffffffffffffffff16600354838560405161154c9493929190612272565b60405180910390a1505050505050565b6002600a60006101000a81548160ff0219169083600381111561158257611581611970565b5b02179055507fc0dc2c128f5b4404608f14ac9e6b756261aca803c33a4fdaef4a3cc647d814ef60405160405180910390a1565b6000806000905060005b6009805490508110156116ba5760086000600983815481106115e4576115e36122b7565b5b9060005260206000200160009054906101000a900473ffffffffffffffffffffffffffffffffffffffff1673ffffffffffffffffffffffffffffffffffffffff1673ffffffffffffffffffffffffffffffffffffffff16815260200190815260200160002054826116559190611c23565b9150838211156116a75760098181548110611673576116726122b7565b5b9060005260206000200160009054906101000a900473ffffffffffffffffffffffffffffffffffffffff16925050506116e0565b80806116b2906122e6565b9150506115bf565b5060008054906101000a900473ffffffffffffffffffffffffffffffffffffffff169150505b919050565b600082825260208201905092915050565b7f506c656173652075736520746865206275795469636b65742066756e6374696f60008201527f6e00000000000000000000000000000000000000000000000000000000000000602082015250565b60006117526021836116e5565b915061175d826116f6565b604082019050919050565b6000602082019050818103600083015261178181611745565b9050919050565b600081519050919050565b60005b838110156117b1578082015181840152602081019050611796565b60008484015250505050565b6000601f19601f8301169050919050565b60006117d982611788565b6117e381856116e5565b93506117f3818560208601611793565b6117fc816117bd565b840191505092915050565b6000602082019050818103600083015261182181846117ce565b905092915050565b6000819050919050565b61183c81611829565b82525050565b60006020820190506118576000830184611833565b92915050565b600080fd5b61186b81611829565b811461187657600080fd5b50565b60008135905061188881611862565b92915050565b6000602082840312156118a4576118a361185d565b5b60006118b284828501611879565b91505092915050565b600073ffffffffffffffffffffffffffffffffffffffff82169050919050565b60006118e6826118bb565b9050919050565b6118f6816118db565b82525050565b600060208201905061191160008301846118ed565b92915050565b611920816118db565b811461192b57600080fd5b50565b60008135905061193d81611917565b92915050565b6000602082840312156119595761195861185d565b5b60006119678482850161192e565b91505092915050565b7f4e487b7100000000000000000000000000000000000000000000000000000000600052602160045260246000fd5b600481106119b0576119af611970565b5b50565b60008190506119c18261199f565b919050565b60006119d1826119b3565b9050919050565b6119e1816119c6565b82525050565b60006020820190506119fc60008301846119d8565b92915050565b7f4e487b7100000000000000000000000000000000000000000000000000000000600052601160045260246000fd5b6000611a3c82611829565b9150611a4783611829565b9250828202611a5581611829565b91508282048414831517611a6c57611a6b611a02565b5b5092915050565b7f526166666c65206973206e6f7420616374697665000000000000000000000000600082015250565b6000611aa96014836116e5565b9150611ab482611a73565b602082019050919050565b60006020820190508181036000830152611ad881611a9c565b9050919050565b7f526166666c652068617320656e64656400000000000000000000000000000000600082015250565b6000611b156010836116e5565b9150611b2082611adf565b602082019050919050565b60006020820190508181036000830152611b4481611b08565b9050919050565b7f496e636f72726563742045544820616d6f756e74000000000000000000000000600082015250565b6000611b816014836116e5565b9150611b8c82611b4b565b602082019050919050565b60006020820190508181036000830152611bb081611b74565b9050919050565b7f5175616e74697479206d7573742062652067726561746572207468616e203000600082015250565b6000611bed601f836116e5565b9150611bf882611bb7565b602082019050919050565b60006020820190508181036000830152611c1c81611be0565b9050919050565b6000611c2e82611829565b9150611c3983611829565b9250828201905080821115611c5157611c50611a02565b5b92915050565b7f45786365656473206d6178696d756d207469636b657473206c696d6974000000600082015250565b6000611c8d601d836116e5565b9150611c9882611c57565b602082019050919050565b60006020820190508181036000830152611cbc81611c80565b9050919050565b6000604082019050611cd860008301856118ed565b611ce56020830184611833565b9392505050565b7f4f6e6c79206f776e65722063616e2063616c6c20746869732066756e6374696f60008201527f6e00000000000000000000000000000000000000000000000000000000000000602082015250565b6000611d486021836116e5565b9150611d5382611cec565b604082019050919050565b60006020820190508181036000830152611d7781611d3b565b9050919050565b7f526166666c6520686173206e6f7420656e646564207965740000000000000000600082015250565b6000611db46018836116e5565b9150611dbf82611d7e565b602082019050919050565b60006020820190508181036000830152611de381611da7565b9050919050565b7f526166666c6520616c72656164792066696e616c697a65640000000000000000600082015250565b6000611e206018836116e5565b9150611e2b82611dea565b602082019050919050565b60006020820190508181036000830152611e4f81611e13565b9050919050565b7f4e6f20726566756e6420617661696c61626c6500000000000000000000000000600082015250565b6000611e8c6013836116e5565b9150611e9782611e56565b602082019050919050565b60006020820190508181036000830152611ebb81611e7f565b9050919050565b7f4e6f207469636b65747320746f20726566756e64000000000000000000000000600082015250565b6000611ef86014836116e5565b9150611f0382611ec2565b602082019050919050565b60006020820190508181036000830152611f2781611eeb565b9050919050565b600081905092915050565b50565b6000611f49600083611f2e565b9150611f5482611f39565b600082019050919050565b6000611f6a82611f3c565b9150819050919050565b7f526566756e64207472616e73666572206661696c656400000000000000000000600082015250565b6000611faa6016836116e5565b9150611fb582611f74565b602082019050919050565b60006020820190508181036000830152611fd981611f9d565b9050919050565b6000611feb82611829565b9150611ff683611829565b925082820390508181111561200e5761200d611a02565b5b92915050565b6000819050919050565b6000819050919050565b61203961203482612014565b61201e565b82525050565b6000819050919050565b61205a61205582611829565b61203f565b82525050565b600061206c8286612028565b60208201915061207c8285612049565b60208201915061208c8284612049565b602082019150819050949350505050565b7f4e487b7100000000000000000000000000000000000000000000000000000000600052601260045260246000fd5b60006120d782611829565b91506120e283611829565b9250826120f2576120f161209d565b5b828206905092915050565b7f5072697a65207472616e73666572206661696c65640000000000000000000000600082015250565b60006121336015836116e5565b915061213e826120fd565b602082019050919050565b6000602082019050818103600083015261216281612126565b9050919050565b600061217482611829565b915061217f83611829565b92508261218f5761218e61209d565b5b828204905092915050565b7f506c6174666f726d207472616e73666572206661696c65640000000000000000600082015250565b60006121d06018836116e5565b91506121db8261219a565b602082019050919050565b600060208201905081810360008301526121ff816121c3565b9050919050565b7f4f776e6572207472616e73666572206661696c65640000000000000000000000600082015250565b600061223c6015836116e5565b915061224782612206565b602082019050919050565b6000602082019050818103600083015261226b8161222f565b9050919050565b600060808201905061228760008301876118ed565b6122946020830186611833565b6122a16040830185611833565b6122ae6060830184611833565b95945050505050565b7f4e487b7100000000000000000000000000000000000000000000000000000000600052603260045260246000fd5b60006122f182611829565b91507fffffffffffffffffffffffffffffffffffffffffffffffffffffffffffffffff820361232357612322611a02565b5b60018201905091905056fea26469706673582212202e91b9065f3687c8f306aad4fa2fb4dfa1a27be00a35c2afc74ee894b5ae5d7364736f6c63430008130033",
  "linkReferences": {},
  "deployedLinkReferences": {}
}