{
  "_format": "hh-sol-artifact-1",
  "contractName": "AutoRaffle",
  "sourceName": "contracts/RaffleManager.sol",
  "abi": [
    {
      "inputs": [
        {
          "internalType": "uint256",
          "name": "_ticketPrice",
          "type": "uint256"
        },
        {
          "internalType": "uint256",
          "name": "_prizeValue",
          "type": "uint256"
        },
        {
          "internalType": "uint256",
          "name": "_duration",
          "type": "uint256"
        },
        {
          "internalType": "uint256",
          "name": "_maxTickets",
          "type": "uint256"
        }
      ],
      "stateMutability": "nonpayable",
      "type": "constructor"
    },
    {
      "anonymous": false,
      "inputs": [
        {
          "indexed": false,
          "internalType": "uint256",
          "name": "maxTickets",
          "type": "uint256"
        }
      ],
      "name": "MaxTicketsReached",
      "type": "event"
    },
    {
      "anonymous": false,
      "inputs": [],
      "name": "RaffleCancelled",
      "type": "event"
    },
    {
      "anonymous": false,
      "inputs": [
        {
          "indexed": false,
          "internalType": "address",
          "name": "winner",
          "type": "address"
        },
        {
          "indexed": false,
          "internalType": "uint256",
          "name": "prize",
          "type": "uint256"
        },
        {
          "indexed": false,
          "internalType": "uint256",
          "name": "ownerProfit",
          "type": "uint256"
        },
        {
          "indexed": false,
          "internalType": "uint256",
          "name": "platformFee",
          "type": "uint256"
        }
      ],
      "name": "RaffleCompleted",
      "type": "event"
    },
    {
      "anonymous": false,
      "inputs": [],
      "name": "RaffleRefunded",
      "type": "event"
    },
    {
      "anonymous": false,
      "inputs": [
        {
          "indexed": false,
          "internalType": "address",
          "name": "participant",
          "type": "address"
        },
        {
          "indexed": false,
          "internalType": "uint256",
          "name": "amount",
          "type": "uint256"
        }
      ],
      "name": "RefundClaimed",
      "type": "event"
    },
    {
      "anonymous": false,
      "inputs": [
        {
          "indexed": false,
          "internalType": "address",
          "name": "buyer",
          "type": "address"
        },
        {
          "indexed": false,
          "internalType": "uint256",
          "name": "quantity",
          "type": "uint256"
        }
      ],
      "name": "TicketPurchased",
      "type": "event"
    },
    {
      "inputs": [
        {
          "internalType": "uint256",
          "name": "_quantity",
          "type": "uint256"
        }
      ],
      "name": "buyTicket",
      "outputs": [],
      "stateMutability": "payable",
      "type": "function"
    },
    {
      "inputs": [],
      "name": "cancelRaffle",
      "outputs": [],
      "stateMutability": "nonpayable",
      "type": "function"
    },
    {
      "inputs": [],
      "name": "claimRefund",
      "outputs": [],
      "stateMutability": "nonpayable",
      "type": "function"
    },
    {
      "inputs": [],
      "name": "endTime",
      "outputs": [
        {
          "internalType": "uint256",
          "name": "",
          "type": "uint256"
        }
      ],
      "stateMutability": "view",
      "type": "function"
    },
    {
      "inputs": [],
      "name": "finalizeRaffle",
      "outputs": [],
      "stateMutability": "nonpayable",
      "type": "function"
    },
    {
      "inputs": [],
      "name": "getContractBalance",
      "outputs": [
        {
          "internalType": "uint256",
          "name": "",
          "type": "uint256"
        }
      ],
      "stateMutability": "view",
      "type": "function"
    },
    {
      "inputs": [],
      "name": "getParticipantsCount",
      "outputs": [
        {
          "internalType": "uint256",
          "name": "",
          "type": "uint256"
        }
      ],
      "stateMutability": "view",
      "type": "function"
    },
    {
      "inputs": [],
      "name": "getRaffleState",
      "outputs": [
        {
          "internalType": "string",
          "name": "",
          "type": "string"
        }
      ],
      "stateMutability": "view",
      "type": "function"
    },
    {
      "inputs": [
        {
          "internalType": "address",
          "name": "participant",
          "type": "address"
        }
      ],
      "name": "getRefundAmount",
      "outputs": [
        {
          "internalType": "uint256",
          "name": "",
          "type": "uint256"
        }
      ],
      "stateMutability": "view",
      "type": "function"
    },
    {
      "inputs": [],
      "name": "maxTickets",
      "outputs": [
        {
          "internalType": "uint256",
          "name": "",
          "type": "uint256"
        }
      ],
      "stateMutability": "view",
      "type": "function"
    },
    {
      "inputs": [],
      "name": "minParticipants",
      "outputs": [
        {
          "internalType": "uint256",
          "name": "",
          "type": "uint256"
        }
      ],
      "stateMutability": "view",
      "type": "function"
    },
    {
      "inputs": [],
      "name": "owner",
      "outputs": [
        {
          "internalType": "address",
          "name": "",
          "type": "address"
        }
      ],
      "stateMutability": "view",
      "type": "function"
    },
    {
      "inputs": [
        {
          "internalType": "uint256",
          "name": "",
          "type": "uint256"
        }
      ],
      "name": "participants",
      "outputs": [
        {
          "internalType": "address",
          "name": "",
          "type": "address"
        }
      ],
      "stateMutability": "view",
      "type": "function"
    },
    {
      "inputs": [],
      "name": "platform",
      "outputs": [
        {
          "internalType": "address",
          "name": "",
          "type": "address"
        }
      ],
      "stateMutability": "view",
      "type": "function"
    },
    {
      "inputs": [],
      "name": "prizeValue",
      "outputs": [
        {
          "internalType": "uint256",
          "name": "",
          "type": "uint256"
        }
      ],
      "stateMutability": "view",
      "type": "function"
    },
    {
      "inputs": [],
      "name": "refundAmountPerTicket",
      "outputs": [
        {
          "internalType": "uint256",
          "name": "",
          "type": "uint256"
        }
      ],
      "stateMutability": "view",
      "type": "function"
    },
    {
      "inputs": [],
      "name": "state",
      "outputs": [
        {
          "internalType": "enum AutoRaffle.RaffleState",
          "name": "",
          "type": "uint8"
        }
      ],
      "stateMutability": "view",
      "type": "function"
    },
    {
      "inputs": [],
      "name": "ticketPrice",
      "outputs": [
        {
          "internalType": "uint256",
          "name": "",
          "type": "uint256"
        }
      ],
      "stateMutability": "view",
      "type": "function"
    },
    {
      "inputs": [
        {
          "internalType": "address",
          "name": "",
          "type": "address"
        }
      ],
      "name": "ticketsBought",
      "outputs": [
        {
          "internalType": "uint256",
          "name": "",
          "type": "uint256"
        }
      ],
      "stateMutability": "view",
      "type": "function"
    },
    {
      "inputs": [],
      "name": "totalTicketsSold",
      "outputs": [
        {
          "internalType": "uint256",
          "name": "",
          "type": "uint256"
        }
      ],
      "stateMutability": "view",
      "type": "function"
    },
    {
      "inputs": [
        {
          "internalType": "address",
          "name": "newOwner",
          "type": "address"
        }
      ],
      "name": "transferOwnership",
      "outputs": [],
      "stateMutability": "nonpayable",
      "type": "function"
    },
    {
      "inputs": [],
      "name": "winner",
      "outputs": [
        {
          "internalType": "address",
          "name": "",
          "type": "address"
        }
      ],
      "stateMutability": "view",
      "type": "function"
    },
    {
      "stateMutability": "payable",
      "type": "receive"
    }
  ],
  "bytecode": "0x6080604052730fade5b267b572dc1f002d1b9148976ccce9c8c8600160006101000a81548173ffffffffffffffffffffffffffffffffffffffff021916908373ffffffffffffffffffffffffffffffffffffffff1602179055503480156200006657600080fd5b5060405162002d5538038062002d5583398181016040528101906200008c919062000326565b60008411620000d2576040517f08c379a0000000000000000000000000000000000000000000000000000000008152600401620000c9906200041f565b60405180910390fd5b6000831162000118576040517f08c379a00000000000000000000000000000000000000000000000000000000081526004016200010f90620004b7565b60405180910390fd5b600082116200015e576040517f08c379a0000000000000000000000000000000000000000000000000000000008152600401620001559062000529565b60405180910390fd5b60008111620001a4576040517f08c379a00000000000000000000000000000000000000000000000000000000081526004016200019b90620005c1565b60405180910390fd5b600a84620001b3919062000612565b6001600a86620001c4919062000612565b600b86620001d3919062000612565b620001df91906200065d565b620001eb919062000698565b620001f7919062000702565b60058190555060055481101562000245576040517f08c379a00000000000000000000000000000000000000000000000000000000081526004016200023c90620007b0565b60405180910390fd5b336000806101000a81548173ffffffffffffffffffffffffffffffffffffffff021916908373ffffffffffffffffffffffffffffffffffffffff16021790555083600281905550826003819055508142620002a191906200065d565b600481905550806006819055506000600a60006101000a81548160ff02191690836003811115620002d757620002d6620007d2565b5b02179055505050505062000801565b600080fd5b6000819050919050565b6200030081620002eb565b81146200030c57600080fd5b50565b6000815190506200032081620002f5565b92915050565b60008060008060808587031215620003435762000342620002e6565b5b600062000353878288016200030f565b945050602062000366878288016200030f565b935050604062000379878288016200030f565b92505060606200038c878288016200030f565b91505092959194509250565b600082825260208201905092915050565b7f5469636b6574207072696365206d75737420626520677265617465722074686160008201527f6e20300000000000000000000000000000000000000000000000000000000000602082015250565b60006200040760238362000398565b91506200041482620003a9565b604082019050919050565b600060208201905081810360008301526200043a81620003f8565b9050919050565b7f5072697a652076616c7565206d7573742062652067726561746572207468616e60008201527f2030000000000000000000000000000000000000000000000000000000000000602082015250565b60006200049f60228362000398565b9150620004ac8262000441565b604082019050919050565b60006020820190508181036000830152620004d28162000490565b9050919050565b7f4475726174696f6e206d7573742062652067726561746572207468616e203000600082015250565b600062000511601f8362000398565b91506200051e82620004d9565b602082019050919050565b60006020820190508181036000830152620005448162000502565b9050919050565b7f4d6178207469636b657473206d7573742062652067726561746572207468616e60008201527f2030000000000000000000000000000000000000000000000000000000000000602082015250565b6000620005a960228362000398565b9150620005b6826200054b565b604082019050919050565b60006020820190508181036000830152620005dc816200059a565b9050919050565b7f4e487b7100000000000000000000000000000000000000000000000000000000600052601160045260246000fd5b60006200061f82620002eb565b91506200062c83620002eb565b92508282026200063c81620002eb565b91508282048414831517620006565762000655620005e3565b5b5092915050565b60006200066a82620002eb565b91506200067783620002eb565b9250828201905080821115620006925762000691620005e3565b5b92915050565b6000620006a582620002eb565b9150620006b283620002eb565b9250828203905081811115620006cd57620006cc620005e3565b5b92915050565b7f4e487b7100000000000000000000000000000000000000000000000000000000600052601260045260246000fd5b60006200070f82620002eb565b91506200071c83620002eb565b9250826200072f576200072e620006d3565b5b828204905092915050565b7f4d6178207469636b6574732063616e6e6f74206265206c657373207468616e2060008201527f6d696e696d756d207061727469636970616e7473000000000000000000000000602082015250565b60006200079860348362000398565b9150620007a5826200073a565b604082019050919050565b60006020820190508181036000830152620007cb8162000789565b9050919050565b7f4e487b7100000000000000000000000000000000000000000000000000000000600052602160045260246000fd5b61254480620008116000396000f3fe6080604052600436106101395760003560e01c806384bd3264116100ab578063a54cd4f71161006f578063a54cd4f71461042d578063b5545a3c14610458578063c19d93fb1461046f578063cabfaa181461049a578063dfbf53ae146104c5578063f2fde38b146104f057610179565b806384bd32641461035857806388279320146103955780638da5cb5b146103c05780639b894703146103eb5780639ead2f771461041657610179565b806335c1d349116100fd57806335c1d349146102555780634bde38c8146102925780635d306f34146102bd57806367dd74ca146102fa5780636f9fb98a14610316578063705332501461034157610179565b8063115cbaf51461017e5780631209b1f6146101a95780633197cbb6146101d457806334701db8146101ff578063359054d91461022a57610179565b36610179576040517f08c379a0000000000000000000000000000000000000000000000000000000008152600401610170906118dc565b60405180910390fd5b600080fd5b34801561018a57600080fd5b50610193610519565b6040516101a0919061197b565b60405180910390f35b3480156101b557600080fd5b506101be6106bf565b6040516101cb91906119b6565b60405180910390f35b3480156101e057600080fd5b506101e96106c5565b6040516101f691906119b6565b60405180910390f35b34801561020b57600080fd5b506102146106cb565b60405161022191906119b6565b60405180910390f35b34801561023657600080fd5b5061023f6106d1565b60405161024c91906119b6565b60405180910390f35b34801561026157600080fd5b5061027c60048036038101906102779190611a02565b6106d7565b6040516102899190611a70565b60405180910390f35b34801561029e57600080fd5b506102a7610716565b6040516102b49190611a70565b60405180910390f35b3480156102c957600080fd5b506102e460048036038101906102df9190611ab7565b61073c565b6040516102f191906119b6565b60405180910390f35b610314600480360381019061030f9190611a02565b610865565b005b34801561032257600080fd5b5061032b610bab565b60405161033891906119b6565b60405180910390f35b34801561034d57600080fd5b50610356610bb3565b005b34801561036457600080fd5b5061037f600480360381019061037a9190611ab7565b610d19565b60405161038c91906119b6565b60405180910390f35b3480156103a157600080fd5b506103aa610d31565b6040516103b791906119b6565b60405180910390f35b3480156103cc57600080fd5b506103d5610d37565b6040516103e29190611a70565b60405180910390f35b3480156103f757600080fd5b50610400610d5b565b60405161040d91906119b6565b60405180910390f35b34801561042257600080fd5b5061042b610d61565b005b34801561043957600080fd5b50610442610e3f565b60405161044f91906119b6565b60405180910390f35b34801561046457600080fd5b5061046d610e45565b005b34801561047b57600080fd5b50610484611189565b6040516104919190611b5b565b60405180910390f35b3480156104a657600080fd5b506104af61119c565b6040516104bc91906119b6565b60405180910390f35b3480156104d157600080fd5b506104da6111a9565b6040516104e79190611a70565b60405180910390f35b3480156104fc57600080fd5b5061051760048036038101906105129190611ab7565b6111cf565b005b60606000600381111561052f5761052e611ae4565b5b600a60009054906101000a900460ff16600381111561055157610550611ae4565b5b03610593576040518060400160405280600681526020017f416374697665000000000000000000000000000000000000000000000000000081525090506106bc565b600160038111156105a7576105a6611ae4565b5b600a60009054906101000a900460ff1660038111156105c9576105c8611ae4565b5b0361060b576040518060400160405280600981526020017f436f6d706c65746564000000000000000000000000000000000000000000000081525090506106bc565b6002600381111561061f5761061e611ae4565b5b600a60009054906101000a900460ff16600381111561064157610640611ae4565b5b03610683576040518060400160405280600881526020017f526566756e64656400000000000000000000000000000000000000000000000081525090506106bc565b6040518060400160405280600981526020017f43616e63656c6c6564000000000000000000000000000000000000000000000081525090505b90565b60025481565b60045481565b60075481565b600b5481565b600981815481106106e757600080fd5b906000526020600020016000915054906101000a900473ffffffffffffffffffffffffffffffffffffffff1681565b600160009054906101000a900473ffffffffffffffffffffffffffffffffffffffff1681565b60006002600381111561075257610751611ae4565b5b600a60009054906101000a900460ff16600381111561077457610773611ae4565b5b036107cd57600254600860008473ffffffffffffffffffffffffffffffffffffffff1673ffffffffffffffffffffffffffffffffffffffff168152602001908152602001600020546107c69190611ba5565b9050610860565b6003808111156107e0576107df611ae4565b5b600a60009054906101000a900460ff16600381111561080257610801611ae4565b5b0361085b57600b54600860008473ffffffffffffffffffffffffffffffffffffffff1673ffffffffffffffffffffffffffffffffffffffff168152602001908152602001600020546108549190611ba5565b9050610860565b600090505b919050565b6000600381111561087957610878611ae4565b5b600a60009054906101000a900460ff16600381111561089b5761089a611ae4565b5b146108db576040517f08c379a00000000000000000000000000000000000000000000000000000000081526004016108d290611c33565b60405180910390fd5b600454421061091f576040517f08c379a000000000000000000000000000000000000000000000000000000000815260040161091690611c9f565b60405180910390fd5b8060025461092d9190611ba5565b341461096e576040517f08c379a000000000000000000000000000000000000000000000000000000000815260040161096590611d0b565b60405180910390fd5b600081116109b1576040517f08c379a00000000000000000000000000000000000000000000000000000000081526004016109a890611d77565b60405180910390fd5b600654816007546109c29190611d97565b1115610a03576040517f08c379a00000000000000000000000000000000000000000000000000000000081526004016109fa90611e17565b60405180910390fd5b6000600860003373ffffffffffffffffffffffffffffffffffffffff1673ffffffffffffffffffffffffffffffffffffffff1681526020019081526020016000205403610aae576009339080600181540180825580915050600190039060005260206000200160009091909190916101000a81548173ffffffffffffffffffffffffffffffffffffffff021916908373ffffffffffffffffffffffffffffffffffffffff1602179055505b80600860003373ffffffffffffffffffffffffffffffffffffffff1673ffffffffffffffffffffffffffffffffffffffff1681526020019081526020016000206000828254610afd9190611d97565b925050819055508060076000828254610b169190611d97565b925050819055507f0668f5b446eb814fe35b3206f43f14bd8567ba04ddaf7a3ee56516929ab22ccb3382604051610b4e929190611e37565b60405180910390a160065460075410610ba7577f85d83d33f2b872ef415dac4eba26e565177cb86ac6a54b50a9c84783a0c50cf9600654604051610b9291906119b6565b60405180910390a1610ba261130f565b610ba8565b5b50565b600047905090565b60008054906101000a900473ffffffffffffffffffffffffffffffffffffffff1673ffffffffffffffffffffffffffffffffffffffff163373ffffffffffffffffffffffffffffffffffffffff1614610c41576040517f08c379a0000000000000000000000000000000000000000000000000000000008152600401610c3890611ed2565b60405180910390fd5b60006003811115610c5557610c54611ae4565b5b600a60009054906101000a900460ff166003811115610c7757610c76611ae4565b5b14610cb7576040517f08c379a0000000000000000000000000000000000000000000000000000000008152600401610cae90611c33565b60405180910390fd5b6003600a60006101000a81548160ff02191690836003811115610cdd57610cdc611ae4565b5b0217905550600254600b819055507f90e8484a98b653b6def19811c0e3811715da0de9c6b90d013442ba7e7541295160405160405180910390a1565b60086020528060005260406000206000915090505481565b60035481565b60008054906101000a900473ffffffffffffffffffffffffffffffffffffffff1681565b60065481565b600454421015610da6576040517f08c379a0000000000000000000000000000000000000000000000000000000008152600401610d9d90611f3e565b60405180910390fd5b60006003811115610dba57610db9611ae4565b5b600a60009054906101000a900460ff166003811115610ddc57610ddb611ae4565b5b14610e1c576040517f08c379a0000000000000000000000000000000000000000000000000000000008152600401610e1390611faa565b60405180910390fd5b60055460075410610e3457610e2f61130f565b610e3d565b610e3c6116d0565b5b565b60055481565b60026003811115610e5957610e58611ae4565b5b600a60009054906101000a900460ff166003811115610e7b57610e7a611ae4565b5b1480610eb95750600380811115610e9557610e94611ae4565b5b600a60009054906101000a900460ff166003811115610eb757610eb6611ae4565b5b145b610ef8576040517f08c379a0000000000000000000000000000000000000000000000000000000008152600401610eef90612016565b60405180910390fd5b6000600860003373ffffffffffffffffffffffffffffffffffffffff1673ffffffffffffffffffffffffffffffffffffffff1681526020019081526020016000205411610f7a576040517f08c379a0000000000000000000000000000000000000000000000000000000008152600401610f7190612082565b60405180910390fd5b600060026003811115610f9057610f8f611ae4565b5b600a60009054906101000a900460ff166003811115610fb257610fb1611ae4565b5b0361100b57600254600860003373ffffffffffffffffffffffffffffffffffffffff1673ffffffffffffffffffffffffffffffffffffffff168152602001908152602001600020546110049190611ba5565b905061105b565b600b54600860003373ffffffffffffffffffffffffffffffffffffffff1673ffffffffffffffffffffffffffffffffffffffff168152602001908152602001600020546110589190611ba5565b90505b6000600860003373ffffffffffffffffffffffffffffffffffffffff1673ffffffffffffffffffffffffffffffffffffffff1681526020019081526020016000208190555060003373ffffffffffffffffffffffffffffffffffffffff16826040516110c6906120d3565b60006040518083038185875af1925050503d8060008114611103576040519150601f19603f3d011682016040523d82523d6000602084013e611108565b606091505b505090508061114c576040517f08c379a000000000000000000000000000000000000000000000000000000000815260040161114390612134565b60405180910390fd5b7f358fe4192934d3bf28ae181feda1f4bd08ca67f5e2fad55582cce5eb67304ae9338360405161117d929190611e37565b60405180910390a15050565b600a60009054906101000a900460ff1681565b6000600980549050905090565b600a60019054906101000a900473ffffffffffffffffffffffffffffffffffffffff1681565b60008054906101000a900473ffffffffffffffffffffffffffffffffffffffff1673ffffffffffffffffffffffffffffffffffffffff163373ffffffffffffffffffffffffffffffffffffffff161461125d576040517f08c379a000000000000000000000000000000000000000000000000000000000815260040161125490611ed2565b60405180910390fd5b600073ffffffffffffffffffffffffffffffffffffffff168173ffffffffffffffffffffffffffffffffffffffff16036112cc576040517f08c379a00000000000000000000000000000000000000000000000000000000081526004016112c3906121a0565b60405180910390fd5b806000806101000a81548173ffffffffffffffffffffffffffffffffffffffff021916908373ffffffffffffffffffffffffffffffffffffffff16021790555050565b600060014361131e91906121c0565b404260075460405160200161133593929190612240565b6040516020818303038152906040528051906020012060001c905060006007548261136091906122ac565b905061136b81611729565b600a60016101000a81548173ffffffffffffffffffffffffffffffffffffffff021916908373ffffffffffffffffffffffffffffffffffffffff1602179055506000600a60019054906101000a900473ffffffffffffffffffffffffffffffffffffffff1673ffffffffffffffffffffffffffffffffffffffff166003546040516113f5906120d3565b60006040518083038185875af1925050503d8060008114611432576040519150601f19603f3d011682016040523d82523d6000602084013e611437565b606091505b505090508061147b576040517f08c379a000000000000000000000000000000000000000000000000000000000815260040161147290612329565b60405180910390fd5b600047905060006064600a836114919190611ba5565b61149b9190612349565b9050600160009054906101000a900473ffffffffffffffffffffffffffffffffffffffff1673ffffffffffffffffffffffffffffffffffffffff16816040516114e3906120d3565b60006040518083038185875af1925050503d8060008114611520576040519150601f19603f3d011682016040523d82523d6000602084013e611525565b606091505b5050809350508261156b576040517f08c379a0000000000000000000000000000000000000000000000000000000008152600401611562906123c6565b60405180910390fd5b600047905060008054906101000a900473ffffffffffffffffffffffffffffffffffffffff1673ffffffffffffffffffffffffffffffffffffffff16816040516115b4906120d3565b60006040518083038185875af1925050503d80600081146115f1576040519150601f19603f3d011682016040523d82523d6000602084013e6115f6565b606091505b5050809450508361163c576040517f08c379a000000000000000000000000000000000000000000000000000000000815260040161163390612432565b60405180910390fd5b6001600a60006101000a81548160ff0219169083600381111561166257611661611ae4565b5b02179055507fd68f9ce710916e9d3d07db535bad7f5969f023c3a630d7de051092fa245d791d600a60019054906101000a900473ffffffffffffffffffffffffffffffffffffffff1660035483856040516116c09493929190612452565b60405180910390a1505050505050565b6002600a60006101000a81548160ff021916908360038111156116f6576116f5611ae4565b5b02179055507fc0dc2c128f5b4404608f14ac9e6b756261aca803c33a4fdaef4a3cc647d814ef60405160405180910390a1565b6000806000905060005b60098054905081101561182e57600860006009838154811061175857611757612497565b5b9060005260206000200160009054906101000a900473ffffffffffffffffffffffffffffffffffffffff1673ffffffffffffffffffffffffffffffffffffffff1673ffffffffffffffffffffffffffffffffffffffff16815260200190815260200160002054826117c99190611d97565b91508382111561181b57600981815481106117e7576117e6612497565b5b9060005260206000200160009054906101000a900473ffffffffffffffffffffffffffffffffffffffff1692505050611854565b8080611826906124c6565b915050611733565b5060008054906101000a900473ffffffffffffffffffffffffffffffffffffffff169150505b919050565b600082825260208201905092915050565b7f506c656173652075736520746865206275795469636b65742066756e6374696f60008201527f6e00000000000000000000000000000000000000000000000000000000000000602082015250565b60006118c6602183611859565b91506118d18261186a565b604082019050919050565b600060208201905081810360008301526118f5816118b9565b9050919050565b600081519050919050565b60005b8381101561192557808201518184015260208101905061190a565b60008484015250505050565b6000601f19601f8301169050919050565b600061194d826118fc565b6119578185611859565b9350611967818560208601611907565b61197081611931565b840191505092915050565b600060208201905081810360008301526119958184611942565b905092915050565b6000819050919050565b6119b08161199d565b82525050565b60006020820190506119cb60008301846119a7565b92915050565b600080fd5b6119df8161199d565b81146119ea57600080fd5b50565b6000813590506119fc816119d6565b92915050565b600060208284031215611a1857611a176119d1565b5b6000611a26848285016119ed565b91505092915050565b600073ffffffffffffffffffffffffffffffffffffffff82169050919050565b6000611a5a82611a2f565b9050919050565b611a6a81611a4f565b82525050565b6000602082019050611a856000830184611a61565b92915050565b611a9481611a4f565b8114611a9f57600080fd5b50565b600081359050611ab181611a8b565b92915050565b600060208284031215611acd57611acc6119d1565b5b6000611adb84828501611aa2565b91505092915050565b7f4e487b7100000000000000000000000000000000000000000000000000000000600052602160045260246000fd5b60048110611b2457611b23611ae4565b5b50565b6000819050611b3582611b13565b919050565b6000611b4582611b27565b9050919050565b611b5581611b3a565b82525050565b6000602082019050611b706000830184611b4c565b92915050565b7f4e487b7100000000000000000000000000000000000000000000000000000000600052601160045260246000fd5b6000611bb08261199d565b9150611bbb8361199d565b9250828202611bc98161199d565b91508282048414831517611be057611bdf611b76565b5b5092915050565b7f526166666c65206973206e6f7420616374697665000000000000000000000000600082015250565b6000611c1d601483611859565b9150611c2882611be7565b602082019050919050565b60006020820190508181036000830152611c4c81611c10565b9050919050565b7f526166666c652068617320656e64656400000000000000000000000000000000600082015250565b6000611c89601083611859565b9150611c9482611c53565b602082019050919050565b60006020820190508181036000830152611cb881611c7c565b9050919050565b7f496e636f72726563742045544820616d6f756e74000000000000000000000000600082015250565b6000611cf5601483611859565b9150611d0082611cbf565b602082019050919050565b60006020820190508181036000830152611d2481611ce8565b9050919050565b7f5175616e74697479206d7573742062652067726561746572207468616e203000600082015250565b6000611d61601f83611859565b9150611d6c82611d2b565b602082019050919050565b60006020820190508181036000830152611d9081611d54565b9050919050565b6000611da28261199d565b9150611dad8361199d565b9250828201905080821115611dc557611dc4611b76565b5b92915050565b7f45786365656473206d6178696d756d207469636b657473206c696d6974000000600082015250565b6000611e01601d83611859565b9150611e0c82611dcb565b602082019050919050565b60006020820190508181036000830152611e3081611df4565b9050919050565b6000604082019050611e4c6000830185611a61565b611e5960208301846119a7565b9392505050565b7f4f6e6c79206f776e65722063616e2063616c6c20746869732066756e6374696f60008201527f6e00000000000000000000000000000000000000000000000000000000000000602082015250565b6000611ebc602183611859565b9150611ec782611e60565b604082019050919050565b60006020820190508181036000830152611eeb81611eaf565b9050919050565b7f526166666c6520686173206e6f7420656e646564207965740000000000000000600082015250565b6000611f28601883611859565b9150611f3382611ef2565b602082019050919050565b60006020820190508181036000830152611f5781611f1b565b9050919050565b7f526166666c6520616c72656164792066696e616c697a65640000000000000000600082015250565b6000611f94601883611859565b9150611f9f82611f5e565b602082019050919050565b60006020820190508181036000830152611fc381611f87565b9050919050565b7f4e6f20726566756e6420617661696c61626c6500000000000000000000000000600082015250565b6000612000601383611859565b915061200b82611fca565b602082019050919050565b6000602082019050818103600083015261202f81611ff3565b9050919050565b7f4e6f207469636b65747320746f20726566756e64000000000000000000000000600082015250565b600061206c601483611859565b915061207782612036565b602082019050919050565b6000602082019050818103600083015261209b8161205f565b9050919050565b600081905092915050565b50565b60006120bd6000836120a2565b91506120c8826120ad565b600082019050919050565b60006120de826120b0565b9150819050919050565b7f526566756e64207472616e73666572206661696c656400000000000000000000600082015250565b600061211e601683611859565b9150612129826120e8565b602082019050919050565b6000602082019050818103600083015261214d81612111565b9050919050565b7f496e76616c6964206f776e657220616464726573730000000000000000000000600082015250565b600061218a601583611859565b915061219582612154565b602082019050919050565b600060208201905081810360008301526121b98161217d565b9050919050565b60006121cb8261199d565b91506121d68361199d565b92508282039050818111156121ee576121ed611b76565b5b92915050565b6000819050919050565b6000819050919050565b612219612214826121f4565b6121fe565b82525050565b6000819050919050565b61223a6122358261199d565b61221f565b82525050565b600061224c8286612208565b60208201915061225c8285612229565b60208201915061226c8284612229565b602082019150819050949350505050565b7f4e487b7100000000000000000000000000000000000000000000000000000000600052601260045260246000fd5b60006122b78261199d565b91506122c28361199d565b9250826122d2576122d161227d565b5b828206905092915050565b7f5072697a65207472616e73666572206661696c65640000000000000000000000600082015250565b6000612313601583611859565b915061231e826122dd565b602082019050919050565b6000602082019050818103600083015261234281612306565b9050919050565b60006123548261199d565b915061235f8361199d565b92508261236f5761236e61227d565b5b828204905092915050565b7f506c6174666f726d207472616e73666572206661696c65640000000000000000600082015250565b60006123b0601883611859565b91506123bb8261237a565b602082019050919050565b600060208201905081810360008301526123df816123a3565b9050919050565b7f4f776e6572207472616e73666572206661696c65640000000000000000000000600082015250565b600061241c601583611859565b9150612427826123e6565b602082019050919050565b6000602082019050818103600083015261244b8161240f565b9050919050565b60006080820190506124676000830187611a61565b61247460208301866119a7565b61248160408301856119a7565b61248e60608301846119a7565b95945050505050565b7f4e487b7100000000000000000000000000000000000000000000000000000000600052603260045260246000fd5b60006124d18261199d565b91507fffffffffffffffffffffffffffffffffffffffffffffffffffffffffffffffff820361250357612502611b76565b5b60018201905091905056fea264697066735822122084ca6fb8971c16e35d7cb19b3a9cb99ec36622e957f7cd39c63e25d3e44f98f764736f6c63430008130033",
  "linkReferences": {},
  "deployedLinkReferences": {}
}